{
  "contractName": "Weavy",
  "abi": [
    {
      "constant": true,
      "inputs": [
        {
          "internalType": "string",
          "name": "",
          "type": "string"
        }
      ],
      "name": "farmKey",
      "outputs": [
        {
          "internalType": "uint16",
          "name": "",
          "type": "uint16"
        }
      ],
      "payable": false,
      "stateMutability": "view",
      "type": "function"
    },
    {
      "constant": true,
      "inputs": [
        {
          "internalType": "uint256",
          "name": "",
          "type": "uint256"
        }
      ],
      "name": "farmers",
      "outputs": [
        {
          "internalType": "string",
          "name": "id",
          "type": "string"
        },
        {
          "internalType": "string",
          "name": "name",
          "type": "string"
        },
        {
          "internalType": "string",
          "name": "password",
          "type": "string"
        },
        {
          "internalType": "string",
          "name": "email",
          "type": "string"
        },
        {
          "internalType": "string",
          "name": "phone",
          "type": "string"
        }
      ],
      "payable": false,
      "stateMutability": "view",
      "type": "function"
    },
    {
      "constant": true,
      "inputs": [
        {
          "internalType": "string",
          "name": "",
          "type": "string"
        }
      ],
      "name": "insKey",
      "outputs": [
        {
          "internalType": "uint16",
          "name": "",
          "type": "uint16"
        }
      ],
      "payable": false,
      "stateMutability": "view",
      "type": "function"
    },
    {
      "constant": true,
      "inputs": [
        {
          "internalType": "uint256",
          "name": "",
          "type": "uint256"
        }
      ],
      "name": "insurances",
      "outputs": [
        {
          "internalType": "string",
          "name": "id",
          "type": "string"
        },
        {
          "internalType": "string",
          "name": "name",
          "type": "string"
        },
        {
          "internalType": "string",
          "name": "password",
          "type": "string"
        },
        {
          "internalType": "string",
          "name": "email",
          "type": "string"
        },
        {
          "internalType": "string",
          "name": "phone",
          "type": "string"
        }
      ],
      "payable": false,
      "stateMutability": "view",
      "type": "function"
    },
    {
      "constant": true,
      "inputs": [],
      "name": "lengthofProducts",
      "outputs": [
        {
          "internalType": "uint16",
          "name": "",
          "type": "uint16"
        }
      ],
      "payable": false,
      "stateMutability": "view",
      "type": "function"
    },
    {
      "constant": true,
      "inputs": [
        {
          "internalType": "string",
          "name": "",
          "type": "string"
        }
      ],
      "name": "logAuth",
      "outputs": [
        {
          "internalType": "bool",
          "name": "",
          "type": "bool"
        }
      ],
      "payable": false,
      "stateMutability": "view",
      "type": "function"
    },
    {
      "constant": true,
      "inputs": [],
      "name": "numofFarmers",
      "outputs": [
        {
          "internalType": "uint16",
          "name": "",
          "type": "uint16"
        }
      ],
      "payable": false,
      "stateMutability": "view",
      "type": "function"
    },
    {
      "constant": true,
      "inputs": [],
      "name": "numofIns",
      "outputs": [
        {
          "internalType": "uint16",
          "name": "",
          "type": "uint16"
        }
      ],
      "payable": false,
      "stateMutability": "view",
      "type": "function"
    },
    {
      "constant": true,
      "inputs": [],
      "name": "numofSchemes",
      "outputs": [
        {
          "internalType": "uint16",
          "name": "",
          "type": "uint16"
        }
      ],
      "payable": false,
      "stateMutability": "view",
      "type": "function"
    },
    {
      "constant": true,
      "inputs": [],
      "name": "numofUsers",
      "outputs": [
        {
          "internalType": "uint16",
          "name": "",
          "type": "uint16"
        }
      ],
      "payable": false,
      "stateMutability": "view",
      "type": "function"
    },
    {
      "constant": true,
      "inputs": [
        {
          "internalType": "string",
          "name": "",
          "type": "string"
        }
      ],
      "name": "pdtKey",
      "outputs": [
        {
          "internalType": "uint16",
          "name": "",
          "type": "uint16"
        }
      ],
      "payable": false,
      "stateMutability": "view",
      "type": "function"
    },
    {
      "constant": true,
      "inputs": [
        {
          "internalType": "uint256",
          "name": "",
          "type": "uint256"
        }
      ],
      "name": "products",
      "outputs": [
        {
          "internalType": "string",
          "name": "id",
          "type": "string"
        },
        {
          "internalType": "string",
          "name": "pdtId",
          "type": "string"
        },
        {
          "internalType": "string",
          "name": "name",
          "type": "string"
        },
        {
          "internalType": "string",
          "name": "detail",
          "type": "string"
        },
        {
          "internalType": "string",
          "name": "price",
          "type": "string"
        }
      ],
      "payable": false,
      "stateMutability": "view",
      "type": "function"
    },
    {
      "constant": true,
      "inputs": [
        {
          "internalType": "string",
          "name": "",
          "type": "string"
        }
      ],
      "name": "regAuth",
      "outputs": [
        {
          "internalType": "bool",
          "name": "",
          "type": "bool"
        }
      ],
      "payable": false,
      "stateMutability": "view",
      "type": "function"
    },
    {
      "constant": true,
      "inputs": [
        {
          "internalType": "string",
          "name": "",
          "type": "string"
        }
      ],
      "name": "schemeKey",
      "outputs": [
        {
          "internalType": "uint16",
          "name": "",
          "type": "uint16"
        }
      ],
      "payable": false,
      "stateMutability": "view",
      "type": "function"
    },
    {
      "constant": true,
      "inputs": [
        {
          "internalType": "uint256",
          "name": "",
          "type": "uint256"
        }
      ],
      "name": "schemes",
      "outputs": [
        {
          "internalType": "string",
          "name": "id",
          "type": "string"
        },
        {
          "internalType": "string",
          "name": "farmName",
          "type": "string"
        },
        {
          "internalType": "string",
          "name": "insName",
          "type": "string"
        },
        {
          "internalType": "string",
          "name": "insPhone",
          "type": "string"
        },
        {
          "internalType": "uint8",
          "name": "status",
          "type": "uint8"
        }
      ],
      "payable": false,
      "stateMutability": "view",
      "type": "function"
    },
    {
      "constant": true,
      "inputs": [
        {
          "internalType": "string",
          "name": "",
          "type": "string"
        },
        {
          "internalType": "uint256",
          "name": "",
          "type": "uint256"
        }
      ],
      "name": "userInsSchemes",
      "outputs": [
        {
          "internalType": "string",
          "name": "id",
          "type": "string"
        },
        {
          "internalType": "string",
          "name": "farmName",
          "type": "string"
        },
        {
          "internalType": "string",
          "name": "insName",
          "type": "string"
        },
        {
          "internalType": "string",
          "name": "insPhone",
          "type": "string"
        },
        {
          "internalType": "uint8",
          "name": "status",
          "type": "uint8"
        }
      ],
      "payable": false,
      "stateMutability": "view",
      "type": "function"
    },
    {
      "constant": true,
      "inputs": [
        {
          "internalType": "string",
          "name": "",
          "type": "string"
        }
      ],
      "name": "userKey",
      "outputs": [
        {
          "internalType": "uint16",
          "name": "",
          "type": "uint16"
        }
      ],
      "payable": false,
      "stateMutability": "view",
      "type": "function"
    },
    {
      "constant": true,
      "inputs": [
        {
          "internalType": "string",
          "name": "",
          "type": "string"
        },
        {
          "internalType": "uint256",
          "name": "",
          "type": "uint256"
        }
      ],
      "name": "userProducts",
      "outputs": [
        {
          "internalType": "string",
          "name": "id",
          "type": "string"
        },
        {
          "internalType": "string",
          "name": "pdtId",
          "type": "string"
        },
        {
          "internalType": "string",
          "name": "name",
          "type": "string"
        },
        {
          "internalType": "string",
          "name": "detail",
          "type": "string"
        },
        {
          "internalType": "string",
          "name": "price",
          "type": "string"
        }
      ],
      "payable": false,
      "stateMutability": "view",
      "type": "function"
    },
    {
      "constant": true,
      "inputs": [
        {
          "internalType": "uint256",
          "name": "",
          "type": "uint256"
        }
      ],
      "name": "users",
      "outputs": [
        {
          "internalType": "string",
          "name": "id",
          "type": "string"
        },
        {
          "internalType": "string",
          "name": "name",
          "type": "string"
        },
        {
          "internalType": "string",
          "name": "password",
          "type": "string"
        },
        {
          "internalType": "string",
          "name": "email",
          "type": "string"
        },
        {
          "internalType": "string",
          "name": "phone",
          "type": "string"
        }
      ],
      "payable": false,
      "stateMutability": "view",
      "type": "function"
    },
    {
      "constant": false,
      "inputs": [
        {
          "internalType": "string",
          "name": "reg",
          "type": "string"
        },
        {
          "internalType": "string",
          "name": "log",
          "type": "string"
        },
        {
          "internalType": "string",
          "name": "_name",
          "type": "string"
        },
        {
          "internalType": "string",
          "name": "_password",
          "type": "string"
        },
        {
          "internalType": "string",
          "name": "_email",
          "type": "string"
        },
        {
          "internalType": "string",
          "name": "_phone",
          "type": "string"
        },
        {
          "internalType": "uint8",
          "name": "uType",
          "type": "uint8"
        }
      ],
      "name": "signUp",
      "outputs": [
        {
          "internalType": "bool",
          "name": "",
          "type": "bool"
        }
      ],
      "payable": false,
      "stateMutability": "nonpayable",
      "type": "function"
    },
    {
      "constant": true,
      "inputs": [
        {
          "internalType": "string",
          "name": "log",
          "type": "string"
        }
      ],
      "name": "signIn",
      "outputs": [
        {
          "internalType": "bool",
          "name": "",
          "type": "bool"
        }
      ],
      "payable": false,
      "stateMutability": "view",
      "type": "function"
    },
    {
      "constant": false,
      "inputs": [
        {
          "internalType": "string",
          "name": "id",
          "type": "string"
        },
        {
          "internalType": "string",
          "name": "log",
          "type": "string"
        },
        {
          "internalType": "string",
          "name": "_name",
          "type": "string"
        },
        {
          "internalType": "string",
          "name": "_detail",
          "type": "string"
        },
        {
          "internalType": "string",
          "name": "_price",
          "type": "string"
        }
      ],
      "name": "addProduct",
      "outputs": [
        {
          "internalType": "bool",
          "name": "",
          "type": "bool"
        }
      ],
      "payable": false,
      "stateMutability": "nonpayable",
      "type": "function"
    },
    {
      "constant": true,
      "inputs": [],
      "name": "returnProducts",
      "outputs": [
        {
          "components": [
            {
              "internalType": "string",
              "name": "id",
              "type": "string"
            },
            {
              "internalType": "string",
              "name": "pdtId",
              "type": "string"
            },
            {
              "internalType": "string",
              "name": "name",
              "type": "string"
            },
            {
              "internalType": "string",
              "name": "detail",
              "type": "string"
            },
            {
              "internalType": "string",
              "name": "price",
              "type": "string"
            }
          ],
          "internalType": "struct Weavy.Product[]",
          "name": "",
          "type": "tuple[]"
        }
      ],
      "payable": false,
      "stateMutability": "view",
      "type": "function"
    },
    {
      "constant": true,
      "inputs": [
        {
          "internalType": "string",
          "name": "id",
          "type": "string"
        }
      ],
      "name": "returnProduct",
      "outputs": [
        {
          "components": [
            {
              "internalType": "string",
              "name": "id",
              "type": "string"
            },
            {
              "internalType": "string",
              "name": "pdtId",
              "type": "string"
            },
            {
              "internalType": "string",
              "name": "name",
              "type": "string"
            },
            {
              "internalType": "string",
              "name": "detail",
              "type": "string"
            },
            {
              "internalType": "string",
              "name": "price",
              "type": "string"
            }
          ],
          "internalType": "struct Weavy.Product",
          "name": "",
          "type": "tuple"
        }
      ],
      "payable": false,
      "stateMutability": "view",
      "type": "function"
    },
    {
      "constant": true,
      "inputs": [
        {
          "internalType": "string",
          "name": "id",
          "type": "string"
        }
      ],
      "name": "getUserProduct",
      "outputs": [
        {
          "components": [
            {
              "internalType": "string",
              "name": "id",
              "type": "string"
            },
            {
              "internalType": "string",
              "name": "pdtId",
              "type": "string"
            },
            {
              "internalType": "string",
              "name": "name",
              "type": "string"
            },
            {
              "internalType": "string",
              "name": "detail",
              "type": "string"
            },
            {
              "internalType": "string",
              "name": "price",
              "type": "string"
            }
          ],
          "internalType": "struct Weavy.Product[]",
          "name": "",
          "type": "tuple[]"
        }
      ],
      "payable": false,
      "stateMutability": "view",
      "type": "function"
    },
    {
      "constant": true,
      "inputs": [],
      "name": "returnInsurances",
      "outputs": [
        {
          "components": [
            {
              "internalType": "string",
              "name": "id",
              "type": "string"
            },
            {
              "internalType": "string",
              "name": "name",
              "type": "string"
            },
            {
              "internalType": "string",
              "name": "password",
              "type": "string"
            },
            {
              "internalType": "string",
              "name": "email",
              "type": "string"
            },
            {
              "internalType": "string",
              "name": "phone",
              "type": "string"
            }
          ],
          "internalType": "struct Weavy.Insurance[]",
          "name": "",
          "type": "tuple[]"
        }
      ],
      "payable": false,
      "stateMutability": "view",
      "type": "function"
    },
    {
      "constant": true,
      "inputs": [
        {
          "internalType": "string",
          "name": "id",
          "type": "string"
        }
      ],
      "name": "returnInsurance",
      "outputs": [
        {
          "components": [
            {
              "internalType": "string",
              "name": "id",
              "type": "string"
            },
            {
              "internalType": "string",
              "name": "name",
              "type": "string"
            },
            {
              "internalType": "string",
              "name": "password",
              "type": "string"
            },
            {
              "internalType": "string",
              "name": "email",
              "type": "string"
            },
            {
              "internalType": "string",
              "name": "phone",
              "type": "string"
            }
          ],
          "internalType": "struct Weavy.Insurance",
          "name": "",
          "type": "tuple"
        }
      ],
      "payable": false,
      "stateMutability": "view",
      "type": "function"
    },
    {
      "constant": true,
      "inputs": [
        {
          "internalType": "string",
          "name": "name",
          "type": "string"
        }
      ],
      "name": "returnInsurancebyName",
      "outputs": [
        {
          "components": [
            {
              "internalType": "string",
              "name": "id",
              "type": "string"
            },
            {
              "internalType": "string",
              "name": "name",
              "type": "string"
            },
            {
              "internalType": "string",
              "name": "password",
              "type": "string"
            },
            {
              "internalType": "string",
              "name": "email",
              "type": "string"
            },
            {
              "internalType": "string",
              "name": "phone",
              "type": "string"
            }
          ],
          "internalType": "struct Weavy.Insurance",
          "name": "",
          "type": "tuple"
        }
      ],
      "payable": false,
      "stateMutability": "view",
      "type": "function"
    },
    {
      "constant": true,
      "inputs": [
        {
          "internalType": "string",
          "name": "id",
          "type": "string"
        }
      ],
      "name": "returnFarmer",
      "outputs": [
        {
          "components": [
            {
              "internalType": "string",
              "name": "id",
              "type": "string"
            },
            {
              "internalType": "string",
              "name": "name",
              "type": "string"
            },
            {
              "internalType": "string",
              "name": "password",
              "type": "string"
            },
            {
              "internalType": "string",
              "name": "email",
              "type": "string"
            },
            {
              "internalType": "string",
              "name": "phone",
              "type": "string"
            }
          ],
          "internalType": "struct Weavy.Farmer",
          "name": "",
          "type": "tuple"
        }
      ],
      "payable": false,
      "stateMutability": "view",
      "type": "function"
    },
    {
      "constant": false,
      "inputs": [
        {
          "internalType": "string",
          "name": "id",
          "type": "string"
        },
        {
          "internalType": "string",
          "name": "fId",
          "type": "string"
        },
        {
          "internalType": "string",
          "name": "iId",
          "type": "string"
        },
        {
          "internalType": "string",
          "name": "fName",
          "type": "string"
        },
        {
          "internalType": "string",
          "name": "iName",
          "type": "string"
        },
        {
          "internalType": "string",
          "name": "iPhone",
          "type": "string"
        },
        {
          "internalType": "uint8",
          "name": "status",
          "type": "uint8"
        }
      ],
      "name": "addInsScheme",
      "outputs": [
        {
          "internalType": "bool",
          "name": "",
          "type": "bool"
        }
      ],
      "payable": false,
      "stateMutability": "nonpayable",
      "type": "function"
    },
    {
      "constant": true,
      "inputs": [
        {
          "internalType": "string",
          "name": "log",
          "type": "string"
        }
      ],
      "name": "getInsSchemes",
      "outputs": [
        {
          "components": [
            {
              "internalType": "string",
              "name": "id",
              "type": "string"
            },
            {
              "internalType": "string",
              "name": "farmName",
              "type": "string"
            },
            {
              "internalType": "string",
              "name": "insName",
              "type": "string"
            },
            {
              "internalType": "string",
              "name": "insPhone",
              "type": "string"
            },
            {
              "internalType": "uint8",
              "name": "status",
              "type": "uint8"
            }
          ],
          "internalType": "struct Weavy.InsScheme[]",
          "name": "",
          "type": "tuple[]"
        }
      ],
      "payable": false,
      "stateMutability": "view",
      "type": "function"
    },
    {
      "constant": true,
      "inputs": [
        {
          "internalType": "string",
          "name": "Id",
          "type": "string"
        }
      ],
      "name": "getInsScheme",
      "outputs": [
        {
          "components": [
            {
              "internalType": "string",
              "name": "id",
              "type": "string"
            },
            {
              "internalType": "string",
              "name": "farmName",
              "type": "string"
            },
            {
              "internalType": "string",
              "name": "insName",
              "type": "string"
            },
            {
              "internalType": "string",
              "name": "insPhone",
              "type": "string"
            },
            {
              "internalType": "uint8",
              "name": "status",
              "type": "uint8"
            }
          ],
          "internalType": "struct Weavy.InsScheme",
          "name": "",
          "type": "tuple"
        }
      ],
      "payable": false,
      "stateMutability": "view",
      "type": "function"
    }
  ],
  "bytecode": "0x60806040526000600e60006101000a81548161ffff021916908361ffff1602179055506000600e60026101000a81548161ffff021916908361ffff1602179055506000600e60046101000a81548161ffff021916908361ffff1602179055506000600e60066101000a81548161ffff021916908361ffff1602179055506000600e60086101000a81548161ffff021916908361ffff1602179055503480156100a657600080fd5b50615c5780620000b76000396000f3fe608060405234801561001057600080fd5b50600436106101f05760003560e01c806394aa0e4e1161010f578063c95f728a116100a2578063ef6da8d411610071578063ef6da8d4146106f7578063f059652a14610727578063f4fd4cbb14610745578063f72e118614610763576101f0565b8063c95f728a14610633578063cd52601f14610663578063dfa3d91d14610693578063e97efe1f146106c7576101f0565b8063b767e3f0116100de578063b767e3f014610581578063bb52085e1461059f578063bc91b386146105d3578063c69cf1d814610603576101f0565b806394aa0e4e146104e5578063a100a7ea14610503578063b03fb80e14610533578063b53df10414610563576101f0565b806359fee9cc1161018757806378a34cc71161015657806378a34cc71461041d5780637acc0b201461044d57806381646954146104815780638afdd669146104b1576101f0565b806359fee9cc1461035d5780635a3a1c151461038d5780635bbb6caa146103bd5780636184c90e146103ed576101f0565b80632c5b88df116101c35780632c5b88df14610295578063365b98b2146102c557806352781613146102f957806359fb49f914610329576101f0565b8063127b7fd8146101f55780631cf62c77146102135780631d56e654146102435780632866501614610261575b600080fd5b6101fd610793565b60405161020a91906159bf565b60405180910390f35b61022d60048036036102289190810190614d8f565b6107a7565b60405161023a91906159bf565b60405180910390f35b61024b6107de565b60405161025891906159bf565b60405180910390f35b61027b6004803603610276919081019061502e565b6107f2565b60405161028c9594939291906158c8565b60405180910390f35b6102af60048036036102aa9190810190614dd0565b610ac5565b6040516102bc919061597b565b60405180910390f35b6102df60048036036102da9190810190615082565b610f84565b6040516102f0959493929190615852565b60405180910390f35b610313600480360361030e9190810190614d8f565b6112bf565b6040516103209190615837565b60405180910390f35b610343600480360361033e9190810190615082565b6112f5565b604051610354959493929190615852565b60405180910390f35b61037760048036036103729190810190614dd0565b611630565b6040516103849190615937565b60405180910390f35b6103a760048036036103a29190810190614d8f565b6119bf565b6040516103b491906159bf565b60405180910390f35b6103d760048036036103d29190810190614d8f565b6119f6565b6040516103e491906159bf565b60405180910390f35b61040760048036036104029190810190614d8f565b611a2d565b60405161041491906159bf565b60405180910390f35b61043760048036036104329190810190614d8f565b611a64565b6040516104449190615837565b60405180910390f35b61046760048036036104629190810190615082565b611a9a565b604051610478959493929190615852565b60405180910390f35b61049b60048036036104969190810190614dd0565b611dd5565b6040516104a891906157d1565b60405180910390f35b6104cb60048036036104c69190810190615082565b6120f7565b6040516104dc959493929190615852565b60405180910390f35b6104ed612432565b6040516104fa91906159bf565b60405180910390f35b61051d60048036036105189190810190614f00565b612446565b60405161052a9190615837565b60405180910390f35b61054d60048036036105489190810190614dd0565b612815565b60405161055a9190615959565b60405180910390f35b61056b612b1f565b60405161057891906159bf565b60405180910390f35b610589612b33565b60405161059691906159bf565b60405180910390f35b6105b960048036036105b49190810190615082565b612b47565b6040516105ca9594939291906158c8565b60405180910390f35b6105ed60048036036105e89190810190614dd0565b612df7565b6040516105fa919061597b565b60405180910390f35b61061d60048036036106189190810190614d8f565b613186565b60405161062a91906159bf565b60405180910390f35b61064d60048036036106489190810190614dd0565b6131bd565b60405161065a9190615837565b60405180910390f35b61067d60048036036106789190810190614f00565b6131f2565b60405161068a9190615837565b60405180910390f35b6106ad60048036036106a8919081019061502e565b6136ff565b6040516106be959493929190615852565b60405180910390f35b6106e160048036036106dc9190810190614dd0565b613a5d565b6040516106ee919061599d565b60405180910390f35b610711600480360361070c9190810190614e11565b613dec565b60405161071e9190615837565b60405180910390f35b61072f6140a0565b60405161073c91906157f3565b60405180910390f35b61074d614429565b60405161075a9190615815565b60405180910390f35b61077d60048036036107789190810190614dd0565b6147b2565b60405161078a9190615815565b60405180910390f35b600e60089054906101000a900461ffff1681565b6007818051602081018201805184825260208301602085012081835280955050505050506000915054906101000a900461ffff1681565b600e60029054906101000a900461ffff1681565b600c82805160208101820180518482526020830160208501208183528095505050505050818154811061082157fe5b906000526020600020906005020160009150915050806000018054600181600116156101000203166002900480601f0160208091040260200160405190810160405280929190818152602001828054600181600116156101000203166002900480156108ce5780601f106108a3576101008083540402835291602001916108ce565b820191906000526020600020905b8154815290600101906020018083116108b157829003601f168201915b505050505090806001018054600181600116156101000203166002900480601f01602080910402602001604051908101604052809291908181526020018280546001816001161561010002031660029004801561096c5780601f106109415761010080835404028352916020019161096c565b820191906000526020600020905b81548152906001019060200180831161094f57829003601f168201915b505050505090806002018054600181600116156101000203166002900480601f016020809104026020016040519081016040528092919081815260200182805460018160011615610100020316600290048015610a0a5780601f106109df57610100808354040283529160200191610a0a565b820191906000526020600020905b8154815290600101906020018083116109ed57829003601f168201915b505050505090806003018054600181600116156101000203166002900480601f016020809104026020016040519081016040528092919081815260200182805460018160011615610100020316600290048015610aa85780601f10610a7d57610100808354040283529160200191610aa8565b820191906000526020600020905b815481529060010190602001808311610a8b57829003601f168201915b5050505050908060040160009054906101000a900460ff16905085565b610acd614b59565b610ad5614b59565b60008090505b600e60029054906101000a900461ffff1661ffff168161ffff161015610f7a5783604051602001610b0c91906157a3565b6040516020818303038152906040528051906020012060048261ffff1681548110610b3357fe5b9060005260206000209060050201600101604051602001610b5491906157ba565b604051602081830303815290604052805190602001201415610ecb5760048161ffff1681548110610b8157fe5b90600052602060002090600502016040518060a0016040529081600082018054600181600116156101000203166002900480601f016020809104026020016040519081016040528092919081815260200182805460018160011615610100020316600290048015610c335780601f10610c0857610100808354040283529160200191610c33565b820191906000526020600020905b815481529060010190602001808311610c1657829003601f168201915b50505050508152602001600182018054600181600116156101000203166002900480601f016020809104026020016040519081016040528092919081815260200182805460018160011615610100020316600290048015610cd55780601f10610caa57610100808354040283529160200191610cd5565b820191906000526020600020905b815481529060010190602001808311610cb857829003601f168201915b50505050508152602001600282018054600181600116156101000203166002900480601f016020809104026020016040519081016040528092919081815260200182805460018160011615610100020316600290048015610d775780601f10610d4c57610100808354040283529160200191610d77565b820191906000526020600020905b815481529060010190602001808311610d5a57829003601f168201915b50505050508152602001600382018054600181600116156101000203166002900480601f016020809104026020016040519081016040528092919081815260200182805460018160011615610100020316600290048015610e195780601f10610dee57610100808354040283529160200191610e19565b820191906000526020600020905b815481529060010190602001808311610dfc57829003601f168201915b50505050508152602001600482018054600181600116156101000203166002900480601f016020809104026020016040519081016040528092919081815260200182805460018160011615610100020316600290048015610ebb5780601f10610e9057610100808354040283529160200191610ebb565b820191906000526020600020905b815481529060010190602001808311610e9e57829003601f168201915b5050505050815250509150610f7a565b6001600e60029054906101000a900461ffff160361ffff168161ffff161415610f67576040518060a00160405280604051806020016040528060008152508152602001604051806020016040528060008152508152602001604051806020016040528060008152508152602001604051806020016040528060008152508152602001604051806020016040528060008152508152509150610f6c565b610f6d565b5b8080600101915050610adb565b5080915050919050565b60028181548110610f9157fe5b9060005260206000209060050201600091509050806000018054600181600116156101000203166002900480601f01602080910402602001604051908101604052809291908181526020018280546001816001161561010002031660029004801561103d5780601f106110125761010080835404028352916020019161103d565b820191906000526020600020905b81548152906001019060200180831161102057829003601f168201915b505050505090806001018054600181600116156101000203166002900480601f0160208091040260200160405190810160405280929190818152602001828054600181600116156101000203166002900480156110db5780601f106110b0576101008083540402835291602001916110db565b820191906000526020600020905b8154815290600101906020018083116110be57829003601f168201915b505050505090806002018054600181600116156101000203166002900480601f0160208091040260200160405190810160405280929190818152602001828054600181600116156101000203166002900480156111795780601f1061114e57610100808354040283529160200191611179565b820191906000526020600020905b81548152906001019060200180831161115c57829003601f168201915b505050505090806003018054600181600116156101000203166002900480601f0160208091040260200160405190810160405280929190818152602001828054600181600116156101000203166002900480156112175780601f106111ec57610100808354040283529160200191611217565b820191906000526020600020905b8154815290600101906020018083116111fa57829003601f168201915b505050505090806004018054600181600116156101000203166002900480601f0160208091040260200160405190810160405280929190818152602001828054600181600116156101000203166002900480156112b55780601f1061128a576101008083540402835291602001916112b5565b820191906000526020600020905b81548152906001019060200180831161129857829003601f168201915b5050505050905085565b6000818051602081018201805184825260208301602085012081835280955050505050506000915054906101000a900460ff1681565b6004818154811061130257fe5b9060005260206000209060050201600091509050806000018054600181600116156101000203166002900480601f0160208091040260200160405190810160405280929190818152602001828054600181600116156101000203166002900480156113ae5780601f10611383576101008083540402835291602001916113ae565b820191906000526020600020905b81548152906001019060200180831161139157829003601f168201915b505050505090806001018054600181600116156101000203166002900480601f01602080910402602001604051908101604052809291908181526020018280546001816001161561010002031660029004801561144c5780601f106114215761010080835404028352916020019161144c565b820191906000526020600020905b81548152906001019060200180831161142f57829003601f168201915b505050505090806002018054600181600116156101000203166002900480601f0160208091040260200160405190810160405280929190818152602001828054600181600116156101000203166002900480156114ea5780601f106114bf576101008083540402835291602001916114ea565b820191906000526020600020905b8154815290600101906020018083116114cd57829003601f168201915b505050505090806003018054600181600116156101000203166002900480601f0160208091040260200160405190810160405280929190818152602001828054600181600116156101000203166002900480156115885780601f1061155d57610100808354040283529160200191611588565b820191906000526020600020905b81548152906001019060200180831161156b57829003601f168201915b505050505090806004018054600181600116156101000203166002900480601f0160208091040260200160405190810160405280929190818152602001828054600181600116156101000203166002900480156116265780601f106115fb57610100808354040283529160200191611626565b820191906000526020600020905b81548152906001019060200180831161160957829003601f168201915b5050505050905085565b611638614b88565b600360088360405161164a91906157a3565b908152602001604051809103902060009054906101000a900461ffff1661ffff168154811061167557fe5b90600052602060002090600502016040518060a0016040529081600082018054600181600116156101000203166002900480601f0160208091040260200160405190810160405280929190818152602001828054600181600116156101000203166002900480156117275780601f106116fc57610100808354040283529160200191611727565b820191906000526020600020905b81548152906001019060200180831161170a57829003601f168201915b50505050508152602001600182018054600181600116156101000203166002900480601f0160208091040260200160405190810160405280929190818152602001828054600181600116156101000203166002900480156117c95780601f1061179e576101008083540402835291602001916117c9565b820191906000526020600020905b8154815290600101906020018083116117ac57829003601f168201915b50505050508152602001600282018054600181600116156101000203166002900480601f01602080910402602001604051908101604052809291908181526020018280546001816001161561010002031660029004801561186b5780601f106118405761010080835404028352916020019161186b565b820191906000526020600020905b81548152906001019060200180831161184e57829003601f168201915b50505050508152602001600382018054600181600116156101000203166002900480601f01602080910402602001604051908101604052809291908181526020018280546001816001161561010002031660029004801561190d5780601f106118e25761010080835404028352916020019161190d565b820191906000526020600020905b8154815290600101906020018083116118f057829003601f168201915b50505050508152602001600482018054600181600116156101000203166002900480601f0160208091040260200160405190810160405280929190818152602001828054600181600116156101000203166002900480156119af5780601f10611984576101008083540402835291602001916119af565b820191906000526020600020905b81548152906001019060200180831161199257829003601f168201915b5050505050815250509050919050565b600a818051602081018201805184825260208301602085012081835280955050505050506000915054906101000a900461ffff1681565b6008818051602081018201805184825260208301602085012081835280955050505050506000915054906101000a900461ffff1681565b6009818051602081018201805184825260208301602085012081835280955050505050506000915054906101000a900461ffff1681565b6001818051602081018201805184825260208301602085012081835280955050505050506000915054906101000a900460ff1681565b60058181548110611aa757fe5b9060005260206000209060050201600091509050806000018054600181600116156101000203166002900480601f016020809104026020016040519081016040528092919081815260200182805460018160011615610100020316600290048015611b535780601f10611b2857610100808354040283529160200191611b53565b820191906000526020600020905b815481529060010190602001808311611b3657829003601f168201915b505050505090806001018054600181600116156101000203166002900480601f016020809104026020016040519081016040528092919081815260200182805460018160011615610100020316600290048015611bf15780601f10611bc657610100808354040283529160200191611bf1565b820191906000526020600020905b815481529060010190602001808311611bd457829003601f168201915b505050505090806002018054600181600116156101000203166002900480601f016020809104026020016040519081016040528092919081815260200182805460018160011615610100020316600290048015611c8f5780601f10611c6457610100808354040283529160200191611c8f565b820191906000526020600020905b815481529060010190602001808311611c7257829003601f168201915b505050505090806003018054600181600116156101000203166002900480601f016020809104026020016040519081016040528092919081815260200182805460018160011615610100020316600290048015611d2d5780601f10611d0257610100808354040283529160200191611d2d565b820191906000526020600020905b815481529060010190602001808311611d1057829003601f168201915b505050505090806004018054600181600116156101000203166002900480601f016020809104026020016040519081016040528092919081815260200182805460018160011615610100020316600290048015611dcb5780601f10611da057610100808354040283529160200191611dcb565b820191906000526020600020905b815481529060010190602001808311611dae57829003601f168201915b5050505050905085565b6060600c82604051611de791906157a3565b9081526020016040518091039020805480602002602001604051908101604052809291908181526020016000905b828210156120ec57838290600052602060002090600502016040518060a0016040529081600082018054600181600116156101000203166002900480601f016020809104026020016040519081016040528092919081815260200182805460018160011615610100020316600290048015611ed15780601f10611ea657610100808354040283529160200191611ed1565b820191906000526020600020905b815481529060010190602001808311611eb457829003601f168201915b50505050508152602001600182018054600181600116156101000203166002900480601f016020809104026020016040519081016040528092919081815260200182805460018160011615610100020316600290048015611f735780601f10611f4857610100808354040283529160200191611f73565b820191906000526020600020905b815481529060010190602001808311611f5657829003601f168201915b50505050508152602001600282018054600181600116156101000203166002900480601f0160208091040260200160405190810160405280929190818152602001828054600181600116156101000203166002900480156120155780601f10611fea57610100808354040283529160200191612015565b820191906000526020600020905b815481529060010190602001808311611ff857829003601f168201915b50505050508152602001600382018054600181600116156101000203166002900480601f0160208091040260200160405190810160405280929190818152602001828054600181600116156101000203166002900480156120b75780601f1061208c576101008083540402835291602001916120b7565b820191906000526020600020905b81548152906001019060200180831161209a57829003601f168201915b505050505081526020016004820160009054906101000a900460ff1660ff1660ff168152505081526020019060010190611e15565b505050509050919050565b6003818154811061210457fe5b9060005260206000209060050201600091509050806000018054600181600116156101000203166002900480601f0160208091040260200160405190810160405280929190818152602001828054600181600116156101000203166002900480156121b05780601f10612185576101008083540402835291602001916121b0565b820191906000526020600020905b81548152906001019060200180831161219357829003601f168201915b505050505090806001018054600181600116156101000203166002900480601f01602080910402602001604051908101604052809291908181526020018280546001816001161561010002031660029004801561224e5780601f106122235761010080835404028352916020019161224e565b820191906000526020600020905b81548152906001019060200180831161223157829003601f168201915b505050505090806002018054600181600116156101000203166002900480601f0160208091040260200160405190810160405280929190818152602001828054600181600116156101000203166002900480156122ec5780601f106122c1576101008083540402835291602001916122ec565b820191906000526020600020905b8154815290600101906020018083116122cf57829003601f168201915b505050505090806003018054600181600116156101000203166002900480601f01602080910402602001604051908101604052809291908181526020018280546001816001161561010002031660029004801561238a5780601f1061235f5761010080835404028352916020019161238a565b820191906000526020600020905b81548152906001019060200180831161236d57829003601f168201915b505050505090806004018054600181600116156101000203166002900480601f0160208091040260200160405190810160405280929190818152602001828054600181600116156101000203166002900480156124285780601f106123fd57610100808354040283529160200191612428565b820191906000526020600020905b81548152906001019060200180831161240b57829003601f168201915b5050505050905085565b600e60049054906101000a900461ffff1681565b600060018760405161245891906157a3565b908152602001604051809103902060009054906101000a900460ff161561280557600c8760405161248991906157a3565b90815260200160405180910390206040518060a001604052808a81526020018781526020018681526020018581526020018460ff16815250908060018154018082558091505090600182039060005260206000209060050201600090919290919091506000820151816000019080519060200190612508929190614bb7565b506020820151816001019080519060200190612525929190614bb7565b506040820151816002019080519060200190612542929190614bb7565b50606082015181600301908051906020019061255f929190614bb7565b5060808201518160040160006101000a81548160ff021916908360ff160217905550505050600c8660405161259491906157a3565b90815260200160405180910390206040518060a001604052808a81526020018781526020018681526020018581526020018460ff16815250908060018154018082558091505090600182039060005260206000209060050201600090919290919091506000820151816000019080519060200190612613929190614bb7565b506020820151816001019080519060200190612630929190614bb7565b50604082015181600201908051906020019061264d929190614bb7565b50606082015181600301908051906020019061266a929190614bb7565b5060808201518160040160006101000a81548160ff021916908360ff16021790555050505060066040518060a001604052808a81526020018781526020018681526020018581526020018460ff16815250908060018154018082558091505090600182039060005260206000209060050201600090919290919091506000820151816000019080519060200190612702929190614bb7565b50602082015181600101908051906020019061271f929190614bb7565b50604082015181600201908051906020019061273c929190614bb7565b506060820151816003019080519060200190612759929190614bb7565b5060808201518160040160006101000a81548160ff021916908360ff160217905550505050600e60089054906101000a900461ffff16600d8960405161279f91906157a3565b908152602001604051809103902060006101000a81548161ffff021916908361ffff160217905550600e600881819054906101000a900461ffff168092919060010191906101000a81548161ffff021916908361ffff160217905550506001905061280a565b600090505b979650505050505050565b61281d614c37565b6006600d8360405161282f91906157a3565b908152602001604051809103902060009054906101000a900461ffff1661ffff168154811061285a57fe5b90600052602060002090600502016040518060a0016040529081600082018054600181600116156101000203166002900480601f01602080910402602001604051908101604052809291908181526020018280546001816001161561010002031660029004801561290c5780601f106128e15761010080835404028352916020019161290c565b820191906000526020600020905b8154815290600101906020018083116128ef57829003601f168201915b50505050508152602001600182018054600181600116156101000203166002900480601f0160208091040260200160405190810160405280929190818152602001828054600181600116156101000203166002900480156129ae5780601f10612983576101008083540402835291602001916129ae565b820191906000526020600020905b81548152906001019060200180831161299157829003601f168201915b50505050508152602001600282018054600181600116156101000203166002900480601f016020809104026020016040519081016040528092919081815260200182805460018160011615610100020316600290048015612a505780601f10612a2557610100808354040283529160200191612a50565b820191906000526020600020905b815481529060010190602001808311612a3357829003601f168201915b50505050508152602001600382018054600181600116156101000203166002900480601f016020809104026020016040519081016040528092919081815260200182805460018160011615610100020316600290048015612af25780601f10612ac757610100808354040283529160200191612af2565b820191906000526020600020905b815481529060010190602001808311612ad557829003601f168201915b505050505081526020016004820160009054906101000a900460ff1660ff1660ff16815250509050919050565b600e60009054906101000a900461ffff1681565b600e60069054906101000a900461ffff1681565b60068181548110612b5457fe5b9060005260206000209060050201600091509050806000018054600181600116156101000203166002900480601f016020809104026020016040519081016040528092919081815260200182805460018160011615610100020316600290048015612c005780601f10612bd557610100808354040283529160200191612c00565b820191906000526020600020905b815481529060010190602001808311612be357829003601f168201915b505050505090806001018054600181600116156101000203166002900480601f016020809104026020016040519081016040528092919081815260200182805460018160011615610100020316600290048015612c9e5780601f10612c7357610100808354040283529160200191612c9e565b820191906000526020600020905b815481529060010190602001808311612c8157829003601f168201915b505050505090806002018054600181600116156101000203166002900480601f016020809104026020016040519081016040528092919081815260200182805460018160011615610100020316600290048015612d3c5780601f10612d1157610100808354040283529160200191612d3c565b820191906000526020600020905b815481529060010190602001808311612d1f57829003601f168201915b505050505090806003018054600181600116156101000203166002900480601f016020809104026020016040519081016040528092919081815260200182805460018160011615610100020316600290048015612dda5780601f10612daf57610100808354040283529160200191612dda565b820191906000526020600020905b815481529060010190602001808311612dbd57829003601f168201915b5050505050908060040160009054906101000a900460ff16905085565b612dff614b59565b6004600a83604051612e1191906157a3565b908152602001604051809103902060009054906101000a900461ffff1661ffff1681548110612e3c57fe5b90600052602060002090600502016040518060a0016040529081600082018054600181600116156101000203166002900480601f016020809104026020016040519081016040528092919081815260200182805460018160011615610100020316600290048015612eee5780601f10612ec357610100808354040283529160200191612eee565b820191906000526020600020905b815481529060010190602001808311612ed157829003601f168201915b50505050508152602001600182018054600181600116156101000203166002900480601f016020809104026020016040519081016040528092919081815260200182805460018160011615610100020316600290048015612f905780601f10612f6557610100808354040283529160200191612f90565b820191906000526020600020905b815481529060010190602001808311612f7357829003601f168201915b50505050508152602001600282018054600181600116156101000203166002900480601f0160208091040260200160405190810160405280929190818152602001828054600181600116156101000203166002900480156130325780601f1061300757610100808354040283529160200191613032565b820191906000526020600020905b81548152906001019060200180831161301557829003601f168201915b50505050508152602001600382018054600181600116156101000203166002900480601f0160208091040260200160405190810160405280929190818152602001828054600181600116156101000203166002900480156130d45780601f106130a9576101008083540402835291602001916130d4565b820191906000526020600020905b8154815290600101906020018083116130b757829003601f168201915b50505050508152602001600482018054600181600116156101000203166002900480601f0160208091040260200160405190810160405280929190818152602001828054600181600116156101000203166002900480156131765780601f1061314b57610100808354040283529160200191613176565b820191906000526020600020905b81548152906001019060200180831161315957829003601f168201915b5050505050815250509050919050565b600d818051602081018201805184825260208301602085012081835280955050505050506000915054906101000a900461ffff1681565b60006001826040516131cf91906157a3565b908152602001604051809103902060009054906101000a900460ff169050919050565b6000808860405161320391906157a3565b908152602001604051809103902060009054906101000a900460ff166136ef57600160008960405161323591906157a3565b908152602001604051809103902060006101000a81548160ff0219169083151502179055506001808860405161326b91906157a3565b908152602001604051809103902060006101000a81548160ff02191690831515021790555060008260ff1614156134075760036040518060a001604052808981526020018881526020018781526020018681526020018581525090806001815401808255809150509060018203906000526020600020906005020160009091929091909150600082015181600001908051906020019061330c929190614bb7565b506020820151816001019080519060200190613329929190614bb7565b506040820151816002019080519060200190613346929190614bb7565b506060820151816003019080519060200190613363929190614bb7565b506080820151816004019080519060200190613380929190614bb7565b50505050600e60069054906101000a900461ffff166008886040516133a591906157a3565b908152602001604051809103902060006101000a81548161ffff021916908361ffff160217905550600e600681819054906101000a900461ffff168092919060010191906101000a81548161ffff021916908361ffff160217905550506136e6565b60018260ff16141561357e5760026040518060a0016040528089815260200188815260200187815260200186815260200185815250908060018154018082558091505090600182039060005260206000209060050201600090919290919091506000820151816000019080519060200190613483929190614bb7565b5060208201518160010190805190602001906134a0929190614bb7565b5060408201518160020190805190602001906134bd929190614bb7565b5060608201518160030190805190602001906134da929190614bb7565b5060808201518160040190805190602001906134f7929190614bb7565b50505050600e60049054906101000a900461ffff1660098860405161351c91906157a3565b908152602001604051809103902060006101000a81548161ffff021916908361ffff160217905550600e600481819054906101000a900461ffff168092919060010191906101000a81548161ffff021916908361ffff160217905550506136e5565b60046040518060a00160405280898152602001888152602001878152602001868152602001858152509080600181540180825580915050906001820390600052602060002090600502016000909192909190915060008201518160000190805190602001906135ee929190614bb7565b50602082015181600101908051906020019061360b929190614bb7565b506040820151816002019080519060200190613628929190614bb7565b506060820151816003019080519060200190613645929190614bb7565b506080820151816004019080519060200190613662929190614bb7565b50505050600e60029054906101000a900461ffff16600a8860405161368791906157a3565b908152602001604051809103902060006101000a81548161ffff021916908361ffff160217905550600e600281819054906101000a900461ffff168092919060010191906101000a81548161ffff021916908361ffff160217905550505b5b600190506136f4565b600090505b979650505050505050565b600b82805160208101820180518482526020830160208501208183528095505050505050818154811061372e57fe5b906000526020600020906005020160009150915050806000018054600181600116156101000203166002900480601f0160208091040260200160405190810160405280929190818152602001828054600181600116156101000203166002900480156137db5780601f106137b0576101008083540402835291602001916137db565b820191906000526020600020905b8154815290600101906020018083116137be57829003601f168201915b505050505090806001018054600181600116156101000203166002900480601f0160208091040260200160405190810160405280929190818152602001828054600181600116156101000203166002900480156138795780601f1061384e57610100808354040283529160200191613879565b820191906000526020600020905b81548152906001019060200180831161385c57829003601f168201915b505050505090806002018054600181600116156101000203166002900480601f0160208091040260200160405190810160405280929190818152602001828054600181600116156101000203166002900480156139175780601f106138ec57610100808354040283529160200191613917565b820191906000526020600020905b8154815290600101906020018083116138fa57829003601f168201915b505050505090806003018054600181600116156101000203166002900480601f0160208091040260200160405190810160405280929190818152602001828054600181600116156101000203166002900480156139b55780601f1061398a576101008083540402835291602001916139b5565b820191906000526020600020905b81548152906001019060200180831161399857829003601f168201915b505050505090806004018054600181600116156101000203166002900480601f016020809104026020016040519081016040528092919081815260200182805460018160011615610100020316600290048015613a535780601f10613a2857610100808354040283529160200191613a53565b820191906000526020600020905b815481529060010190602001808311613a3657829003601f168201915b5050505050905085565b613a65614c69565b6005600783604051613a7791906157a3565b908152602001604051809103902060009054906101000a900461ffff1661ffff1681548110613aa257fe5b90600052602060002090600502016040518060a0016040529081600082018054600181600116156101000203166002900480601f016020809104026020016040519081016040528092919081815260200182805460018160011615610100020316600290048015613b545780601f10613b2957610100808354040283529160200191613b54565b820191906000526020600020905b815481529060010190602001808311613b3757829003601f168201915b50505050508152602001600182018054600181600116156101000203166002900480601f016020809104026020016040519081016040528092919081815260200182805460018160011615610100020316600290048015613bf65780601f10613bcb57610100808354040283529160200191613bf6565b820191906000526020600020905b815481529060010190602001808311613bd957829003601f168201915b50505050508152602001600282018054600181600116156101000203166002900480601f016020809104026020016040519081016040528092919081815260200182805460018160011615610100020316600290048015613c985780601f10613c6d57610100808354040283529160200191613c98565b820191906000526020600020905b815481529060010190602001808311613c7b57829003601f168201915b50505050508152602001600382018054600181600116156101000203166002900480601f016020809104026020016040519081016040528092919081815260200182805460018160011615610100020316600290048015613d3a5780601f10613d0f57610100808354040283529160200191613d3a565b820191906000526020600020905b815481529060010190602001808311613d1d57829003601f168201915b50505050508152602001600482018054600181600116156101000203166002900480601f016020809104026020016040519081016040528092919081815260200182805460018160011615610100020316600290048015613ddc5780601f10613db157610100808354040283529160200191613ddc565b820191906000526020600020905b815481529060010190602001808311613dbf57829003601f168201915b5050505050815250509050919050565b6000600185604051613dfe91906157a3565b908152602001604051809103902060009054906101000a900460ff16156140925760056040518060a0016040528088815260200187815260200186815260200185815260200184815250908060018154018082558091505090600182039060005260206000209060050201600090919290919091506000820151816000019080519060200190613e8f929190614bb7565b506020820151816001019080519060200190613eac929190614bb7565b506040820151816002019080519060200190613ec9929190614bb7565b506060820151816003019080519060200190613ee6929190614bb7565b506080820151816004019080519060200190613f03929190614bb7565b50505050600b85604051613f1791906157a3565b90815260200160405180910390206040518060a0016040528088815260200187815260200186815260200185815260200184815250908060018154018082558091505090600182039060005260206000209060050201600090919290919091506000820151816000019080519060200190613f93929190614bb7565b506020820151816001019080519060200190613fb0929190614bb7565b506040820151816002019080519060200190613fcd929190614bb7565b506060820151816003019080519060200190613fea929190614bb7565b506080820151816004019080519060200190614007929190614bb7565b50505050600e60009054906101000a900461ffff1660078760405161402c91906157a3565b908152602001604051809103902060006101000a81548161ffff021916908361ffff160217905550600e600081819054906101000a900461ffff168092919060010191906101000a81548161ffff021916908361ffff1602179055505060019050614097565b600090505b95945050505050565b60606004805480602002602001604051908101604052809291908181526020016000905b8282101561442057838290600052602060002090600502016040518060a0016040529081600082018054600181600116156101000203166002900480601f0160208091040260200160405190810160405280929190818152602001828054600181600116156101000203166002900480156141805780601f1061415557610100808354040283529160200191614180565b820191906000526020600020905b81548152906001019060200180831161416357829003601f168201915b50505050508152602001600182018054600181600116156101000203166002900480601f0160208091040260200160405190810160405280929190818152602001828054600181600116156101000203166002900480156142225780601f106141f757610100808354040283529160200191614222565b820191906000526020600020905b81548152906001019060200180831161420557829003601f168201915b50505050508152602001600282018054600181600116156101000203166002900480601f0160208091040260200160405190810160405280929190818152602001828054600181600116156101000203166002900480156142c45780601f10614299576101008083540402835291602001916142c4565b820191906000526020600020905b8154815290600101906020018083116142a757829003601f168201915b50505050508152602001600382018054600181600116156101000203166002900480601f0160208091040260200160405190810160405280929190818152602001828054600181600116156101000203166002900480156143665780601f1061433b57610100808354040283529160200191614366565b820191906000526020600020905b81548152906001019060200180831161434957829003601f168201915b50505050508152602001600482018054600181600116156101000203166002900480601f0160208091040260200160405190810160405280929190818152602001828054600181600116156101000203166002900480156144085780601f106143dd57610100808354040283529160200191614408565b820191906000526020600020905b8154815290600101906020018083116143eb57829003601f168201915b505050505081525050815260200190600101906140c4565b50505050905090565b60606005805480602002602001604051908101604052809291908181526020016000905b828210156147a957838290600052602060002090600502016040518060a0016040529081600082018054600181600116156101000203166002900480601f0160208091040260200160405190810160405280929190818152602001828054600181600116156101000203166002900480156145095780601f106144de57610100808354040283529160200191614509565b820191906000526020600020905b8154815290600101906020018083116144ec57829003601f168201915b50505050508152602001600182018054600181600116156101000203166002900480601f0160208091040260200160405190810160405280929190818152602001828054600181600116156101000203166002900480156145ab5780601f10614580576101008083540402835291602001916145ab565b820191906000526020600020905b81548152906001019060200180831161458e57829003601f168201915b50505050508152602001600282018054600181600116156101000203166002900480601f01602080910402602001604051908101604052809291908181526020018280546001816001161561010002031660029004801561464d5780601f106146225761010080835404028352916020019161464d565b820191906000526020600020905b81548152906001019060200180831161463057829003601f168201915b50505050508152602001600382018054600181600116156101000203166002900480601f0160208091040260200160405190810160405280929190818152602001828054600181600116156101000203166002900480156146ef5780601f106146c4576101008083540402835291602001916146ef565b820191906000526020600020905b8154815290600101906020018083116146d257829003601f168201915b50505050508152602001600482018054600181600116156101000203166002900480601f0160208091040260200160405190810160405280929190818152602001828054600181600116156101000203166002900480156147915780601f1061476657610100808354040283529160200191614791565b820191906000526020600020905b81548152906001019060200180831161477457829003601f168201915b5050505050815250508152602001906001019061444d565b50505050905090565b6060600b826040516147c491906157a3565b9081526020016040518091039020805480602002602001604051908101604052809291908181526020016000905b82821015614b4e57838290600052602060002090600502016040518060a0016040529081600082018054600181600116156101000203166002900480601f0160208091040260200160405190810160405280929190818152602001828054600181600116156101000203166002900480156148ae5780601f10614883576101008083540402835291602001916148ae565b820191906000526020600020905b81548152906001019060200180831161489157829003601f168201915b50505050508152602001600182018054600181600116156101000203166002900480601f0160208091040260200160405190810160405280929190818152602001828054600181600116156101000203166002900480156149505780601f1061492557610100808354040283529160200191614950565b820191906000526020600020905b81548152906001019060200180831161493357829003601f168201915b50505050508152602001600282018054600181600116156101000203166002900480601f0160208091040260200160405190810160405280929190818152602001828054600181600116156101000203166002900480156149f25780601f106149c7576101008083540402835291602001916149f2565b820191906000526020600020905b8154815290600101906020018083116149d557829003601f168201915b50505050508152602001600382018054600181600116156101000203166002900480601f016020809104026020016040519081016040528092919081815260200182805460018160011615610100020316600290048015614a945780601f10614a6957610100808354040283529160200191614a94565b820191906000526020600020905b815481529060010190602001808311614a7757829003601f168201915b50505050508152602001600482018054600181600116156101000203166002900480601f016020809104026020016040519081016040528092919081815260200182805460018160011615610100020316600290048015614b365780601f10614b0b57610100808354040283529160200191614b36565b820191906000526020600020905b815481529060010190602001808311614b1957829003601f168201915b505050505081525050815260200190600101906147f2565b505050509050919050565b6040518060a0016040528060608152602001606081526020016060815260200160608152602001606081525090565b6040518060a0016040528060608152602001606081526020016060815260200160608152602001606081525090565b828054600181600116156101000203166002900490600052602060002090601f016020900481019282601f10614bf857805160ff1916838001178555614c26565b82800160010185558215614c26579182015b82811115614c25578251825591602001919060010190614c0a565b5b509050614c339190614c98565b5090565b6040518060a0016040528060608152602001606081526020016060815260200160608152602001600060ff1681525090565b6040518060a0016040528060608152602001606081526020016060815260200160608152602001606081525090565b614cba91905b80821115614cb6576000816000905550600101614c9e565b5090565b90565b600082601f830112614cce57600080fd5b8135614ce1614cdc82615a07565b6159da565b91508082526020830160208301858383011115614cfd57600080fd5b614d08838284615b93565b50505092915050565b600082601f830112614d2257600080fd5b8135614d35614d3082615a33565b6159da565b91508082526020830160208301858383011115614d5157600080fd5b614d5c838284615b93565b50505092915050565b600081359050614d7481615be6565b92915050565b600081359050614d8981615bfd565b92915050565b600060208284031215614da157600080fd5b600082013567ffffffffffffffff811115614dbb57600080fd5b614dc784828501614cbd565b91505092915050565b600060208284031215614de257600080fd5b600082013567ffffffffffffffff811115614dfc57600080fd5b614e0884828501614d11565b91505092915050565b600080600080600060a08688031215614e2957600080fd5b600086013567ffffffffffffffff811115614e4357600080fd5b614e4f88828901614d11565b955050602086013567ffffffffffffffff811115614e6c57600080fd5b614e7888828901614d11565b945050604086013567ffffffffffffffff811115614e9557600080fd5b614ea188828901614d11565b935050606086013567ffffffffffffffff811115614ebe57600080fd5b614eca88828901614d11565b925050608086013567ffffffffffffffff811115614ee757600080fd5b614ef388828901614d11565b9150509295509295909350565b600080600080600080600060e0888a031215614f1b57600080fd5b600088013567ffffffffffffffff811115614f3557600080fd5b614f418a828b01614d11565b975050602088013567ffffffffffffffff811115614f5e57600080fd5b614f6a8a828b01614d11565b965050604088013567ffffffffffffffff811115614f8757600080fd5b614f938a828b01614d11565b955050606088013567ffffffffffffffff811115614fb057600080fd5b614fbc8a828b01614d11565b945050608088013567ffffffffffffffff811115614fd957600080fd5b614fe58a828b01614d11565b93505060a088013567ffffffffffffffff81111561500257600080fd5b61500e8a828b01614d11565b92505060c061501f8a828b01614d7a565b91505092959891949750929550565b6000806040838503121561504157600080fd5b600083013567ffffffffffffffff81111561505b57600080fd5b61506785828601614cbd565b925050602061507885828601614d65565b9150509250929050565b60006020828403121561509457600080fd5b60006150a284828501614d65565b91505092915050565b60006150b783836154a3565b905092915050565b60006150cb83836155c0565b905092915050565b60006150df83836156e4565b905092915050565b60006150f282615aa4565b6150fc8185615b02565b93508360208202850161510e85615a5f565b8060005b8581101561514a578484038952815161512b85826150ab565b945061513683615adb565b925060208a01995050600181019050615112565b50829750879550505050505092915050565b600061516782615aaf565b6151718185615b13565b93508360208202850161518385615a6f565b8060005b858110156151bf57848403895281516151a085826150bf565b94506151ab83615ae8565b925060208a01995050600181019050615187565b50829750879550505050505092915050565b60006151dc82615aba565b6151e68185615b24565b9350836020820285016151f885615a7f565b8060005b85811015615234578484038952815161521585826150d3565b945061522083615af5565b925060208a019950506001810190506151fc565b50829750879550505050505092915050565b61524f81615b62565b82525050565b600061526082615ad0565b61526a8185615b57565b935061527a818560208601615ba2565b80840191505092915050565b600061529182615ac5565b61529b8185615b35565b93506152ab818560208601615ba2565b6152b481615bd5565b840191505092915050565b60006152ca82615ac5565b6152d48185615b46565b93506152e4818560208601615ba2565b6152ed81615bd5565b840191505092915050565b600081546001811660008114615315576001811461533a5761537e565b607f60028304166153268187615b57565b955060ff198316865280860193505061537e565b600282046153488187615b57565b955061535385615a8f565b60005b8281101561537557815481890152600182019150602081019050615356565b82880195505050505b505092915050565b600060a08301600083015184820360008601526153a38282615286565b915050602083015184820360208601526153bd8282615286565b915050604083015184820360408601526153d78282615286565b915050606083015184820360608601526153f18282615286565b9150506080830151848203608086015261540b8282615286565b9150508091505092915050565b600060a08301600083015184820360008601526154358282615286565b9150506020830151848203602086015261544f8282615286565b915050604083015184820360408601526154698282615286565b915050606083015184820360608601526154838282615286565b91505060808301516154986080860182615785565b508091505092915050565b600060a08301600083015184820360008601526154c08282615286565b915050602083015184820360208601526154da8282615286565b915050604083015184820360408601526154f48282615286565b9150506060830151848203606086015261550e8282615286565b91505060808301516155236080860182615785565b508091505092915050565b600060a083016000830151848203600086015261554b8282615286565b915050602083015184820360208601526155658282615286565b9150506040830151848203604086015261557f8282615286565b915050606083015184820360608601526155998282615286565b915050608083015184820360808601526155b38282615286565b9150508091505092915050565b600060a08301600083015184820360008601526155dd8282615286565b915050602083015184820360208601526155f78282615286565b915050604083015184820360408601526156118282615286565b9150506060830151848203606086015261562b8282615286565b915050608083015184820360808601526156458282615286565b9150508091505092915050565b600060a083016000830151848203600086015261566f8282615286565b915050602083015184820360208601526156898282615286565b915050604083015184820360408601526156a38282615286565b915050606083015184820360608601526156bd8282615286565b915050608083015184820360808601526156d78282615286565b9150508091505092915050565b600060a08301600083015184820360008601526157018282615286565b9150506020830151848203602086015261571b8282615286565b915050604083015184820360408601526157358282615286565b9150506060830151848203606086015261574f8282615286565b915050608083015184820360808601526157698282615286565b9150508091505092915050565b61577f81615b6e565b82525050565b61578e81615b86565b82525050565b61579d81615b86565b82525050565b60006157af8284615255565b915081905092915050565b60006157c682846152f8565b915081905092915050565b600060208201905081810360008301526157eb81846150e7565b905092915050565b6000602082019050818103600083015261580d818461515c565b905092915050565b6000602082019050818103600083015261582f81846151d1565b905092915050565b600060208201905061584c6000830184615246565b92915050565b600060a082019050818103600083015261586c81886152bf565b9050818103602083015261588081876152bf565b9050818103604083015261589481866152bf565b905081810360608301526158a881856152bf565b905081810360808301526158bc81846152bf565b90509695505050505050565b600060a08201905081810360008301526158e281886152bf565b905081810360208301526158f681876152bf565b9050818103604083015261590a81866152bf565b9050818103606083015261591e81856152bf565b905061592d6080830184615794565b9695505050505050565b600060208201905081810360008301526159518184615386565b905092915050565b600060208201905081810360008301526159738184615418565b905092915050565b60006020820190508181036000830152615995818461552e565b905092915050565b600060208201905081810360008301526159b78184615652565b905092915050565b60006020820190506159d46000830184615776565b92915050565b6000604051905081810181811067ffffffffffffffff821117156159fd57600080fd5b8060405250919050565b600067ffffffffffffffff821115615a1e57600080fd5b601f19601f8301169050602081019050919050565b600067ffffffffffffffff821115615a4a57600080fd5b601f19601f8301169050602081019050919050565b6000819050602082019050919050565b6000819050602082019050919050565b6000819050602082019050919050565b60008190508160005260206000209050919050565b600081519050919050565b600081519050919050565b600081519050919050565b600081519050919050565b600081519050919050565b6000602082019050919050565b6000602082019050919050565b6000602082019050919050565b600082825260208201905092915050565b600082825260208201905092915050565b600082825260208201905092915050565b600082825260208201905092915050565b600082825260208201905092915050565b600081905092915050565b60008115159050919050565b600061ffff82169050919050565b6000819050919050565b600060ff82169050919050565b82818337600083830152505050565b60005b83811015615bc0578082015181840152602081019050615ba5565b83811115615bcf576000848401525b50505050565b6000601f19601f8301169050919050565b615bef81615b7c565b8114615bfa57600080fd5b50565b615c0681615b86565b8114615c1157600080fd5b5056fea365627a7a72315820d7f45b7266bb0c3aad2834f45c39d0690b01c4293958389f6b6b7cce8c8a3df56c6578706572696d656e74616cf564736f6c63430005100040",
  "source": "pragma solidity >=0.4.22 <0.9.0;\r\npragma experimental ABIEncoderV2;\r\ncontract Weavy{\r\n    struct User{\r\n        string id;\r\n        string name;\r\n        string password;\r\n        string email;\r\n        string phone;\r\n    }\r\n\r\n    struct Farmer{\r\n        string id;\r\n        string name;\r\n        string password;\r\n        string email;\r\n        string phone;\r\n    }\r\n\r\n    struct Insurance{\r\n        string id;\r\n        string name;\r\n        string password;\r\n        string email;\r\n        string phone;\r\n    }\r\n\r\n    struct Product{\r\n        string id;\r\n        string pdtId;\r\n        string name;\r\n        string detail;\r\n        string price;\r\n    }\r\n\r\n    struct InsScheme{\r\n        string id;\r\n        string farmName;\r\n        string insName;\r\n        string insPhone;\r\n        uint8 status;\r\n    }\r\n\r\n    mapping(string=>bool) public regAuth;\r\n    mapping(string=>bool) public logAuth;\r\n    User[] public users;\r\n    Farmer[] public farmers;\r\n    Insurance[] public insurances;\r\n    Product[] public products;\r\n    InsScheme[] public schemes; //temporary\r\n\r\n    mapping(string=>uint16) public pdtKey;\r\n    mapping(string=>uint16) public farmKey;\r\n    mapping(string=>uint16) public userKey;\r\n    mapping(string=>uint16) public insKey;\r\n    \r\n    mapping(string=>Product[]) public userProducts;\r\n    mapping(string=>InsScheme[]) public userInsSchemes;\r\n    mapping(string=>uint16) public schemeKey;\r\n\r\n    uint16 public lengthofProducts = 0;\r\n    uint16 public numofIns = 0;\r\n    uint16 public numofUsers = 0;\r\n    uint16 public numofFarmers = 0;\r\n    uint16 public numofSchemes = 0;\r\n\r\n    function signUp(string memory reg,string memory log,string memory _name,string memory _password,string memory  _email,string memory _phone,uint8 uType) public returns(bool) {\r\n            if(!regAuth[reg]){\r\n                regAuth[reg] = true;\r\n                logAuth[log] = true;\r\n                if(uType == 0){\r\n                    farmers.push(Farmer(log,_name,_password,_email,_phone));\r\n                    farmKey[log] = numofFarmers;\r\n                    numofFarmers ++;\r\n                } else if (uType == 1) {\r\n                    users.push(User(log,_name,_password,_email,_phone));\r\n                    userKey[log] = numofUsers;\r\n                    numofUsers ++;\r\n                } else {\r\n                    insurances.push(Insurance(log,_name,_password,_email,_phone));\r\n                    insKey[log] = numofIns;\r\n                    numofIns ++;\r\n                }\r\n                return true;\r\n            }\r\n            else{\r\n                return false;\r\n            }\r\n    }\r\n\r\n    function signIn(string memory log) public view returns(bool) {\r\n        return (logAuth[log]);\r\n    }\r\n\r\n    function addProduct(string memory id,string memory log,string memory _name,string memory _detail,string memory _price) public returns (bool){\r\n        if(logAuth[log]){\r\n            products.push(Product(id,log,_name,_detail,_price));\r\n            userProducts[log].push(Product(id,log,_name,_detail,_price));\r\n            pdtKey[id] = lengthofProducts;\r\n            lengthofProducts ++;\r\n            return true;\r\n        }else{\r\n            return false;\r\n        }\r\n    }\r\n    function returnProducts() public view returns (Product[] memory){\r\n        return products;\r\n    }\r\n\r\n    function returnProduct(string memory id) public view returns (Product memory){\r\n        return products[pdtKey[id]];\r\n    }\r\n\r\n    function getUserProduct(string memory id) public view returns(Product[] memory){\r\n        return userProducts[id];\r\n    }\r\n\r\n    function returnInsurances() public view returns (Insurance[] memory){\r\n        return insurances;\r\n    }\r\n    function returnInsurance(string memory id) public view returns (Insurance memory){\r\n        return insurances[insKey[id]];\r\n    }\r\n\r\n    function returnInsurancebyName(string memory name) public view returns (Insurance memory) {\r\n        Insurance memory temp;\r\n        for(uint16 i =0;i<numofIns;i++){\r\n            if(keccak256(abi.encodePacked((insurances[i].name))) == keccak256(abi.encodePacked((name)))){\r\n                temp = insurances[i];\r\n                break;\r\n            }else{\r\n                if(i==(numofIns-1)){\r\n                    temp=Insurance('','','','','');\r\n                } else {\r\n                    continue;\r\n                }\r\n            }\r\n        }\r\n        return temp;\r\n    }\r\n\r\n    function returnFarmer(string memory id) public view returns (Farmer memory){\r\n        return farmers[farmKey[id]];\r\n    }\r\n\r\n    function addInsScheme(string memory id,string memory fId,string memory iId,string memory fName,string memory iName,string memory iPhone,uint8 status) public returns (bool) {\r\n        if(logAuth[fId]){\r\n            userInsSchemes[fId].push(InsScheme(id,fName,iName,iPhone,status));\r\n            userInsSchemes[iId].push(InsScheme(id,fName,iName,iPhone,status));\r\n            schemes.push(InsScheme(id,fName,iName,iPhone,status));\r\n            schemeKey[id] = numofSchemes;\r\n            numofSchemes ++;\r\n            return true;\r\n        }else{\r\n            return false;\r\n        }\r\n    }\r\n\r\n    function getInsSchemes(string memory log) public view returns (InsScheme[] memory){\r\n        return userInsSchemes[log];\r\n    }\r\n\r\n    function getInsScheme(string memory Id) public view returns (InsScheme memory){\r\n        return schemes[schemeKey[Id]];\r\n    }\r\n}",
  "sourcePath": "C:\\Users\\user\\Desktop\\WebDev\\Weavy\\NxtLynk\\contracts\\Weavy.sol",
  "compiler": {
    "name": "solc",
    "version": "0.5.16+commit.9c3226ce.Emscripten.clang"
  },
  "schemaVersion": "3.4.3",
  "updatedAt": "2021-09-09T15:38:19.773Z",
  "networkType": "ethereum",
  "devdoc": {
    "methods": {}
  },
  "userdoc": {
    "methods": {}
  }
}